:100000000C9434000C9497000C947A000C944600E5
:100010000C9446000C9446000C9446000C94460048
:100020000C9446000C9446000C9446000C94480036
:100030000C9446000C9446000C9446000C94460028
:100040000C9446000C9446000C9446000C94460018
:100050000C9446000C9446000C9446000C94460008
:100060000C9446000C94460011241FBECFEFD8E03C
:10007000DEBFCDBF21E0A0E0B1E001C01D92A23003
:10008000B207E1F70E94C7000C94E6000C94000050
:100090001F920F920FB60F9211248F93809101013E
:1000A0008823B1F0809100018F3F41F080910001E1
:1000B000875E809300018091000187BD80910001DF
:1000C00087FF0CC0809100018F3F41F0289A29984A
:1000D0008F910F900FBE0F901F9018958091000187
:1000E0008F3FB1F72898299A809181008B7F809368
:1000F0008100EECF1F920F920FB60F9211248F93B3
:10010000EF93FF93109201011092000117BC85B18B
:100110008C7F85B9E1E8F0E080818B7F8083FF915F
:10012000EF918F910F900FBE0F901F9018951F9217
:100130000F920FB60F9211248F939F93809101011C
:1001400081111EC081E08093010110920001809115
:10015000000187BD8091810088608093810088E0E4
:100160009DE3909389008093880080918100856051
:100170008093810080916F00826080936F00289A45
:100180009F918F910F900FBE0F901F90189584B183
:10019000836084B98AB1837F8AB98BB18C608BB953
:1001A000239A84B5836884BD85B5816085BD17BCFD
:1001B00080916900836080936900E89A809169006A
:1001C0008C6080936900E99A7894FFCFF894FFCF10
:00000001FF
