:100000000C9434000C9464000C9446000C9446004C
:100010000C9446000C9446000C9446000C94460048
:100020000C9446000C9446000C9446000C94460038
:100030000C9446000C9446000C9448000C94460026
:100040000C9446000C9446000C9446000C94460018
:100050000C9446000C9446000C9446000C94460008
:100060000C9446000C94460011241FBECFEFD8E03C
:10007000DEBFCDBF21E0A0E0B1E001C01D92A53000
:10008000B207E1F70E94C2000C94F8000C94000043
:100090001F920F920FB60F9211248F93809104013B
:1000A000882341F08091030181110AC0289A81E0E0
:1000B000809303018F910F900FBE0F901F901895A2
:1000C000289810920301F6CF1F920F920FB60F924D
:1000D00011242F933F935F936F937F938F939F93FD
:1000E000AF93BF93EF93FF9380917A0080648093E6
:1000F0007A0080917A0086FDFCCF209178003091C3
:1001000079008091010190910201892BA1F4309333
:10011000020120930101FF91EF91BF91AF919F9157
:100120008F917F916F915F913F912F910F900FBEB3
:100130000F901F901895E0910101F09102018091BC
:1001400001019091020165E070E00E94E400E61B6D
:10015000F70B2E173F0728F4809100018F5F8093E3
:10016000000130930201209301018091000185304C
:1001700008F0289A809100018A3068F281E080932B
:100180000401C9CF209A52985A9A81E080937C004A
:1001900080917C00806480937C0080917A008768E5
:1001A00080937A0083E084BD85BD89EF87BD80910F
:1001B0006E00826080936E00789480916900836005
:1001C00080936900E89AFFCFAA1BBB1B51E107C0CF
:1001D000AA1FBB1FA617B70710F0A61BB70B881FD7
:1001E000991F5A95A9F780959095BC01CD01089566
:0401F000F894FFCFB1
:00000001FF
